:020000040800F2
:100000003820002001010008AF110008010300089A
:10001000AD11000859020008EF18000800000000A8
:100020000000000000000000000000009116000821
:100030005B02000800000000DD1300083D17000807
:100040001B0100081B0100081B0100081B01000820
:100050001B0100081B0100081B0100081B01000810
:100060001B0100081B0100081B0100081B01000800
:100070001B0100081B0100081B0100081B010008F0
:100080001B0100081B0100081B0100081B010008E0
:100090001B0100081B0100081B0100081B010008D0
:1000A0001B0100081B0100081B0100081B010008C0
:1000B0001B0100081B0100081B0100081B010008B0
:1000C0001B0100081B0100081B0100081B010008A0
:1000D0001B0100081B0100081B0100081B01000890
:1000E0001B0100081B0100081B010008DFF80CD0F1
:1000F00000F050F8004800471D320008382000206A
:100100000648804706480047FEE7FEE7FEE7FEE7B1
:10011000FEE7FEE7FEE7FEE7FEE7FEE74117000821
:10012000ED000008421C10F8011B0029FBD1801AC9
:1001300070472DE9F05F0546002092469B468846B1
:100140000646814640241BE0284641464746224653
:1001500000F041F853465A46C01A914110D3114657
:100160001846224600F028F82D1A67EB01084F4682
:1001700022460120002100F01FF817EB00094E4134
:10018000201EA4F10104DFDC484631462A464346DE
:10019000BDE8F09F064C074D06E0E06840F0010323
:1001A00094E8070098471034AC42F6D3FFF7A2FF5B
:1001B000B85A0108D85A0108202A04DB203A00FA6C
:1001C00002F1002070479140C2F1200320FA03F3AE
:1001D000194390407047202A04DB203A21FA02F0AC
:1001E0000021704721FA02F3D040C2F12002914071
:1001F00008431946704770B58C1810F8015B15F06C
:10020000070301D110F8013B2A1106D110F8012B88
:1002100003E010F8016B01F8016B5B1EF9D12B07AD
:1002200005D40023521E0DD401F8013BFAE710F863
:10023000013BCB1A921C03E013F8015B01F8015B50
:10024000521EF9D5A142D8D3002070BD01490860E3
:100250007047000000860D42FEE77047F0B5CC788D
:10026000002204F00F03E40601D58C7823430C78B8
:100270004FF00F0C14F0FF0F4FF0010E1BD005686C
:100280000E880EFA02F42640A64210D196000CFA0F
:1002900006F725EA070703FA06F5CE783D43282E30
:1002A00002D0482E02D002E0446100E00461521CFA
:1002B000082AE5D305600A88FF2A1CD94468002271
:1002C00002F108060EFA06F50E882E40AE420ED157
:1002D00096000CFA06F7BC4303FA06F7CE783C43C7
:1002E000282E00D14561CE78482E00D10561521CE0
:1002F000082AE5D34460F0BD416170470161704751
:10030000FEE7034600209A8A1B8B42EA034222F052
:100310007F42914300D1012070470029018802D01B
:1003200041F0010101E021F001010180704700006E
:1003300010B5012186B0480501F052F801210820CE
:1003400001F066F8C020ADF8100003208DF812000F
:100350001C208DF8130004A91148FFF77FFF114CF2
:10036000204600F023F80021ADF804104BF6FF7191
:10037000ADF806103021ADF808102015ADF80A00D0
:100380000001ADF80C000848009001212046FFF75D
:10039000C4FF6946204600F049F806B010BD0000D1
:1003A000000C014000540040801A0600094910B5B5
:1003B00088424FF0010101D14C0501E04FF4800467
:1003C000204601F019F82046BDE81040002101F058
:1003D00013B80000005400400029018802D041F405
:1003E000807101E021F4807101807047002901884B
:1003F00002D041F4007101E021F4007101807047E6
:100400000CB50246002000920A0F21F07F410192B4
:1004100002D0009A143202E0009A090C18320092BD
:1004200012680A4200D001200CBD000070B50446DD
:10043000808886B00D4620F03F06684600F0F4FF45
:1004400027490298B0FBF1F189B20E43A6802288B9
:1004500022F001022280234B2A689A421CD85200C3
:10046000B0FBF2F080B2042800D20420491C2184A1
:10047000A083208840F00100208020884FF6F531CD
:100480000840A9886A89114301432180A8892989E4
:100490000843208106B070BDEB88A3F53F46FF3EC0
:1004A0000BD002EBC20303EB0212B0FBF2F080B2FE
:1004B00040F48040020506D007E002EB4202B0FBA8
:1004C000F2F080B2F6E740F001004FF4967251432B
:1004D0004FF47A72B1FBF2F140F40040C6E700003D
:1004E00040420F00A086010012B141F0010101E07D
:1004F00001F0FE0101827047018270472DE9F04151
:100500001F4C0F4606464FF4003529462046FFF79C
:1005100077FF0028F9D101212046FFF75DFF194D33
:1005200020462946FFF7EDFE0028F9D00022782169
:100530002046FFF7D9FF144D20462946FFF7E1FE7C
:100540000028F9D031462046FFF7D6FF25460E4C4D
:10055000A41C21462846FFF7D4FE0028F9D03946CE
:100560002846FFF7C9FF21462846FFF7CAFE0028A4
:10057000F9D02846BDE8F0410121FFF737BF000060
:1005800000540040010003008200070038B501213B
:10059000112000F03DFF012000F01AFF002000F0C4
:1005A0008DFF0020FFF752FE4FF46040ADF80000D1
:1005B00010208DF8030002200C4C8DF802006946D3
:1005C0002046FFF74BFE61142046FFF797FE4FF4DD
:1005D00080412046FFF792FE4FF400412046FFF78E
:1005E0008DFE002000F0F4FE38BD00000010014038
:1005F00070B514460D460646FFF7C8FF3CB1012C06
:100600000BD129463046BDE87040FFF777BE29463A
:100610003046BDE87040FFF76FBE70BD10B50446B0
:1006200088B0FF220021092000F04CFD10F0FF00EF
:1006300006D101221021684600F008FD10B101200A
:1006400008B010BDFF2200210A2000F03BFD10F091
:10065000FF00F5D10122102104A800F0F7FC08B139
:100660000220EDE79DF80000800920709DF8000051
:10067000C0F3830060709DF8000000F00300A070DC
:100680009DF80100E0709DF8020020719DF80300C4
:1006900060719DF804000001E080E0889DF805107D
:1006A00040EA1110E0809DF8050000F00F00207274
:1006B0009DF80600C00960729DF80600C0F3801026
:1006C000A0729DF80600C0F34010E0729DF806008D
:1006D000C0F300102073002060739DF80610890796
:1006E000090D216121699DF8072041EA82012161FC
:1006F00021699DF8082041EA921121619DF80810B6
:10070000C1F3C20121759DF8081001F00701617560
:100710009DF809104909A1759DF80910C1F38201DE
:10072000E1759DF809108907490F2176217E9DF812
:100730000A2041EAD21121769DF80A10C1F3840102
:1007400061769DF80A108907C90EA176A17E9DF8F1
:100750000B2041EA5211A1769DF80B1001F01F0108
:10076000E1769DF80C10C90921779DF80C10C1F3B2
:10077000411161779DF80C10C1F38201A1779DF8BA
:100780000C108907090FE177E17F9DF80D2041EA00
:100790009211E1779DF80D10C1F3401184F82010FB
:1007A00084F821009DF80D0000F0010084F822007B
:1007B0009DF80E00C00984F823009DF80E00C0F3D8
:1007C000801084F824009DF80E00C0F3401084F8D7
:1007D00025009DF80E00C0F3001084F826009DF857
:1007E0000E00C0F3810084F827009DF80E0000F091
:1007F000030084F828009DF80F00400884F82900C1
:10080000012084F82A0094F84E10042908D19DF89C
:1008100008100902216121699DF809201144216114
:100820002169C90461644FF40071A1649DF810103E
:1008300084F82C109DF81110090224F82E1F34F8AA
:100840000A199DF81220114361819DF813100906C1
:10085000E160E1689DF8142041EA0241E160E1684D
:100860009DF8152041EA0221E160E1689DF816201B
:100870001143E1609DF8171021749DF81810617400
:100880009DF819100906616161699DF81A2041EA15
:100890000241616161699DF81B2041EA02216161A9
:1008A00061699DF81C2011436161217E9DF81D2026
:1008B00041EA121121769DF81D100907090D618387
:1008C000618B9DF81E20114361839DF81F1049081C
:1008D000217760770020B3E62DE9F0474FF0000A5A
:1008E0005046401C80B2FF28FBD90024FF2000F0B6
:1008F0004FFC641CA4B20A2CF8D3002440F6FF7508
:1009000000219522084600F0DDFBC0B201280BD083
:10091000641CA4B2AC42F3D3AC4205D170A000F089
:10092000EFFF0120BDE8F08787224FF4D571082042
:1009300000F000FCC0B2744EDFF8D0814FF4805953
:10094000052802D0012854D0C8E0012086F84E00C6
:10095000C8F80090FF2000F01BFC00240022114684
:10096000372000F0AFFBC7B2012F64D1002211463F
:10097000292000F0A7FB10F0FF0F2CD0641CA4B2BC
:10098000AC42EBD3AC4226D1002400221146012018
:1009900000F098FB10F0FF010AD0641CA4B2AC4236
:1009A000F3D3AC4204D15AA000F0AAFF0220B9E769
:1009B00086F84EA062A000F0A3FF012000F00AFA22
:1009C000012200213B2000F07DFB10F0FF0404D049
:1009D000214665A052E071A0EDE7FF224FF40071BF
:1009E000102000F06FFB10F0FF0477D0214675A0B7
:1009F00044E0FF2000F0CCFBFF2000F0C9FBFF200B
:100A000000F0C6FBC7B2FF2000F0C2FBC4B2C8F8BA
:100A10000090FF2000F0BCFB012F5FD1AA2C5DD11C
:100A200000244FF0804A00221146372000F04AFB94
:100A3000C7B2012F05D039466FA000F061FF3846DC
:100A400070E700225146292000F03CFB10F0FF0126
:100A50000AD0641CA4B2AC42E5D3AC4204D173A06A
:100A600000F04EFF03205DE7002211463A2000F01F
:100A700061FB10F0FF0405D0214679A000F040FF93
:100A800020464FE7FF2000F083FB0446FF2000F0E4
:100A90007FFBFF2000F07CFBFF2000F079FBC8F813
:100AA0000090FF2000F074FB600608D5042086F853
:100AB0004E0078A000F024FF012381A207E002206D
:100AC00086F84E0083A000F01BFF01238BA20121BA
:100AD000002000F015FC012000F07CF9002021E747
:100AE0005265736574206361726420696E746F204F
:100AF00049444C45207374617465206661696C6576
:100B000064210D0A00000000E01B0020100C0140D1
:100B100053656E6420434D44312073686F756C6477
:100B20002072657475726E20307830302C207265BA
:100B300073706F6E73653D3078253032780D0A0022
:100B40004361726420547970652020202020202089
:100B500020202020202020202020202020203A207B
:100B60004D4D430D0A00000053656E6420434D4413
:100B700035392073686F756C642072657475726E98
:100B800020307830302C20726573706F6E73653D45
:100B90003078253032780D0A00000000436172641D
:100BA0002054797065202020202020202020202023
:100BB000202020202020202020203A20534420568E
:100BC000310D0A0053656E6420434D443136207365
:100BD000686F756C642072657475726E2030783041
:100BE000302C20726573706F6E73653D30782530E0
:100BF00032780D0A0000000053656E6420434D44B6
:100C000035352073686F756C642072657475726E0B
:100C100020307830312C20726573706F6E73653DB3
:100C20003078253032780D0A0000000053656E647C
:100C30002041434D4434312073686F756C642072D9
:100C4000657475726E20307830302C207265737048
:100C50006F6E73653D3078253032780D0A000000E4
:100C600053656E6420434D4435382073686F756C4E
:100C7000642072657475726E20307830302C20726A
:100C80006573706F6E73653D3078253032780D0A6C
:100C900000000000436172642054797065202020B8
:100CA0002020202020202020202020202020202044
:100CB00020203A20534420563248430D0A000000B9
:100CC000436172642054797065203A205344205661
:100CD00032484300436172642054797065202020BB
:100CE0002020202020202020202020202020202004
:100CF00020203A2053442056320D0A00436172648A
:100D00002054797065203A20534420563200000068
:100D10002DE9F0470E461C49154691F84E1004295E
:100D200000D0400201460022122000F0CBF910F062
:100D3000FF0F02D00120BDE8F08700244FF4805758
:100D4000DFF848804FF4007910E006EB44200022E1
:100D5000494600F07BF940B1002211460C2000F01A
:100D6000B1F9C8F800700220E5E7641CAC42ECD38E
:100D7000002211460C2000F0A5F9C8F80070FF20F1
:100D800000F006FA0020D6E7E01B0020100C01401E
:100D900010B50C460E4991F84E10042900D04002BF
:100DA00001460022112000F08DF910F0FF0F01D054
:100DB000012010BD01225102204600F047F9C4B2C3
:100DC000002211460C2000F07DF9204610BD0000E5
:100DD000E01B002000B585B00021ADF800104FF4F5
:100DE0008272ADF80220ADF804100222ADF80620A0
:100DF0000122ADF808205202ADF80A200722ADF812
:100E00000E10ADF8102038B1ADF80C10694604484A
:100E100000F022FC05B000BD3820ADF80C00F5E76D
:100E200000380040F8B50121880300F0D9FA01210B
:100E30000D2000F0EDFA4FF46040ADF800000324FF
:100E40008DF802401820154E8DF803006946304693
:100E5000FFF704FAB514ADF800508DF802401020E9
:100E60008DF8030069463046FFF7F8F90120ADF828
:100E700000008DF8024048208DF803006946304696
:100E8000FFF7ECF90548103005600020FFF7A2FFDE
:100E90000121034800F0D6FBF8BD0000000C014022
:100EA000003800402DE9F05F04463B480D4693466C
:100EB00090F84E10042901D0640221B10022594655
:100EC000172000F0FFF800222146192000F0FAF860
:100ED00010F0FF0F02D00120BDE8F09F2F494FF422
:100EE0008058C1F80080FF2000F052F9DFF8AC9084
:100EF0000026A9F10409DFF8A8A02EE0FC2000F0EC
:100F000047F900244FF4007715F8010B00F040F981
:100F1000641CA4B2BC42F7D3FF2000F039F9FF20D3
:100F200000F036F9FF2000F033F900F01F0005282B
:100F300003D0C9F800800220CEE70024574606E01F
:100F4000641CBC4203D1C9F800800320C4E7FF2021
:100F500000F01EF9FF28F3D1761C5E45CED3FD20AC
:100F600000F016F910F0FF0F02D00024554608E0FB
:100F70000420B1E7641CAC4203D1C9F8008005200D
:100F8000AAE7FF2000F004F9FF28F3D1C9F8008098
:100F900000F0FEF800209FE7E01B0020140C014049
:100FA000010004002DE9F0410D46254991F84E104D
:100FB000042900D0400201460022182000F082F8E7
:100FC00010F0FF0F02D00120BDE8F0811D484FF462
:100FD00080560660FF2000F0DBF8FE2000F0D8F815
:100FE0000024F71015F8010B00F0D2F8641CA4B22D
:100FF000BC42F7D3FF2000F0CBF8FF2000F0C8F888
:10100000FF2000F0C5F80F4D00F01F002D1F052830
:1010100002D02E600220D7E700240B4F05E0641CAD
:10102000BC4202D12E600320CEE7FF2000F0B0F8D2
:101030000028F4D02E60FF2000F0AAF80020C3E7BB
:10104000E01B0020140C0140010004002DE9F047D2
:1010500080461B484FF4805592460E46056000249A
:10106000A0F104094FF4FA67FF2000F091F8C0B234
:10107000FE280AD0641CA4B2BC42F5D3BC4204D101
:10108000C9F800500120BDE8F087002405E000F019
:101090007FF808F80400641CA4B2B4424FF0FF00CB
:1010A000F5D300F075F8FF2000F072F8BAF1000FE8
:1010B00004D0C9F80050FF2000F06AF80020E2E7F1
:1010C000140C01402DE9F041074615460C46FF205F
:1010D00000F05EF816484FF48056066047F0400076
:1010E00000F056F8200E00F053F8C4F3074000F06B
:1010F0004FF8C4F3072000F04BF8E0B200F048F8D6
:10110000284600F045F80024FF2000F041F8C5B261
:10111000FF2D03D1641CE4B2C82CF5D30448001F92
:101120000660FF2000F034F82846BDE8F08100009A
:10113000140C014070B5064615460C46FF2000F021
:1011400027F812494FF48050086046F0400000F044
:101150001FF8200E00F01CF8C4F3074000F018F848
:10116000C4F3072000F014F8E0B200F011F82846AC
:1011700000F00EF80024FF2000F00AF8C0B2FF28AB
:1011800003D1641CE4B2C82CF5D370BD140C01402B
:1011900005490A889207FCD5034A121D1080088869
:1011A000C007FCD01088704708380040FEE7704741
:1011B00070B50646002505F1B000C0B200F098FBFE
:1011C000002000F095FB102000F092FB0024304638
:1011D00000F092FB641CE4B2802CF8D36D1CEDB2DD
:1011E000082DE8D370BD10B5642002F0F2FAAE20ED
:1011F00000F07EFB202000F07BFB102000F078FB4D
:10120000B02000F075FBC82000F072FB002000F059
:101210006FFB102000F06CFB402000F069FB812088
:1012200000F066FBFF2000F063FBA12000F060FBF4
:10123000A62000F05DFBA82000F05AFB3F2000F044
:1012400057FBA42000F054FBD32000F051FB0020FA
:1012500000F04EFBD52000F04BFBF02000F048FBE7
:10126000D92000F045FB222000F042FBDA2000F0FC
:101270003FFB122000F03CFBDB2000F039FB20207C
:1012800000F036FB8D2000F033FB142000F030FB23
:10129000BDE81040AF2000F02BBB10B50446B031C4
:1012A000C8B200F025FB102040EA141000F020FB2B
:1012B00004F00F00BDE8104040F0010000F018BB42
:1012C0004FF47A72B0FBF2F330330B70B0FBF2F3F1
:1012D00002FB13036422B3FBF2F330334B70B0FB19
:1012E000F2F302FB13030A22B3FBF2F330338B70E9
:1012F000B0FBF2F302FB13003030C87070470000FF
:101300002DE9F047002692460F460446012B22D0D5
:10131000DFF8B490022B24D151E0203800F0FF0810
:101320007E2C02D900247F1CFFB239462046FFF7ED
:10133000B4FF08EB4800002509EB400818F8050049
:1013400000F0DAFA6D1CEDB2062DF7D3A41D761C61
:10135000E4B2F6B201E0DFF874901AF80600002853
:10136000DBD1BDE8F087203800F0FF08782C02D9E7
:1013700000247F1CFFB239462046FFF78EFF002570
:1013800005EB081119F8010000F0B6FA6D1CEDB27A
:10139000082DF5D3781CC1B22046FFF77EFF00254B
:1013A00005EB081101EB0900007A00F0A5FA6D1CAD
:1013B000EDB2082DF4D30834761CE4B2F6B21AF874
:1013C00006000028CFD1CCE7BA400008923E0008C2
:1013D000014908627047000000000E42704700009B
:1013E000044A0029D16901D0014300E08143D16161
:1013F0007047000000100240044A0029116901D022
:10140000014300E081431161704700000010024079
:10141000044A0029916901D0014300E081439161B0
:10142000704700000010024030B5204A5168204B40
:1014300011F00C0103D0042901D0082901D0036068
:1014400012E05168536801F470114FF0020413F474
:10145000803F04EB914102D053689B0301D5154BAB
:1014600000E0134B5943016051680F2303EA111147
:10147000114B5C5C0168E14041605468072505EA56
:1014800014241C5D21FA04F48460546805EAD42411
:101490001B5DD940C1605268032303EA9232064BB8
:1014A0001B1F9A5CB1FBF2F1016130BD00100240DC
:1014B00000127A0000093D000400002006490022C5
:1014C00081F8202081F82020012802D0042802D1B0
:1014D000052081F820007047001002401CB504462A
:1014E0006A4601A901F009FA2C49087020B12CA024
:1014F00000F006FA00201CBD214632A000F000FAE0
:101500000098019A81698078891E41435043C20A3C
:10151000C90A32A000F0F4F901233CA20521002001
:10152000FFF7EEFE0123224605211820FFF7E8FE13
:10153000012338A205212420FFF7E2FE00988169EB
:101540008078891E4143C80A1449491CFFF7B8FE38
:10155000124A0123521C06210020FFF7D1FE01236D
:101560002FA206211820FFF7CBFE00980199807862
:1015700048430A49C00A491CFFF7A2FE074A012353
:10158000521C07210020FFF7BBFE012328A20721E0
:101590001820FFF7B5FE01201CBD0000140000203C
:1015A0000A0D47657420746F74616C2064726976EB
:1015B00065207370616365206661696C64210A0D42
:1015C000000000000A0D67657420257320647269AD
:1015D00076652073706163652E0A0D002564204DC9
:1015E0004220746F74616C20647269766520737038
:1015F0006163652E0D0A2564204D42206176616984
:101600006C61626C652E0D0A000000006765742035
:101610000000000064726976652073706163650084
:101620004D4220746F74616C2073706163650000BB
:101630004D4220617661696C626C652073706163F4
:10164000650000000029018802D041F0400101E05E
:1016500021F040010180704730B502884C8802F4C7
:1016600041530A88CD8822438C882C4322430C891D
:1016700022434C8922438C892243CC8922431A433A
:101680000280828B22F400628283098A018230BD4B
:10169000704700000CB500222648009201920168B4
:1016A00041F4803101604FF4A063016801F400311E
:1016B00001910099491C0091019911B90099994231
:1016C000F3D10168890333D5012101911A490A68D0
:1016D00042F010020A600A6822F003020A600A68F7
:1016E00042F002020A60416841604168416041681D
:1016F00041F480614160416821F47C11416041689E
:1017000041F4E8114160016841F0807101600168B5
:101710008901FCD5416821F003014160416841F035
:10172000020141604168C1F381010229FAD10CBD77
:1017300001920CBD001002400020024070470000E2
:101740000F4810B5016841F00101016041680D4A80
:101750001140416001680C4A11400160016821F4A8
:1017600080210160416821F4FE0141604FF41F01B6
:101770008160FFF78FFF05494FF00060086010BDE2
:10178000001002400000FFF8FFFFF6FE08ED00E049
:101790000029818902D041F4005101E021F4005177
:1017A000818170471FB500F099F84FF4E130009047
:1017B0000020ADF80600ADF80400ADF80800ADF863
:1017C0000C000C20064CADF80A006946204600F0DB
:1017D0002FF801212046FFF7DBFF00F003F81FBDC3
:1017E0000038014038B518208DF803004FF4007020
:1017F000ADF800000320094C8DF802006946204630
:10180000FEF72CFD04218DF803100902ADF800103D
:1018100069462046FEF722FD38BD00000008014061
:101820000246002012880A4200D0012070470000C2
:1018300030B50446008A85B00D464CF6FF7108406D
:10184000E98801432182A0894EF6F3110840A98856
:101850002A8911436A8902431143A181A08A4FF664
:10186000FF410840A9890143A1826846FFF7DCFDDA
:101870001948844201D1039800E00298A189090423
:1018800000EBC00101EB0010296801D5490000E020
:101890008900B0FBF1F06422B0FBF2F109010B0901
:1018A0006FF018056B4300EB8300A3891D044FF014
:1018B000320306D503EBC000B0FBF2F000F00700E6
:1018C00005E003EB0010B0FBF2F000F00F0008435E
:1018D000208105B030BD000000380140012144F2F4
:1018E0000400FFF795BDC1F3080181807047FEE752
:1018F00001460020FEF702BE01464020FEF7FEBD75
:101900000FB4054B10B503A9044A029800F02CF857
:1019100010BC5DF814FB0000053000085C020020DC
:101920000FB4084B10B504A902AA039800F01CF8E4
:10193000044602A9002000F048FA204610BC5DF8D9
:1019400014FB0000CB1D000802E008C8121F08C1EC
:10195000002AFAD170477047002001E001C1121F30
:10196000002AFBD1704700002DE9FF4F8DB00F46D4
:101970000546002606E025280BD0DDE90F1290472A
:101980006D1C761C28780028F5D111B03046BDE8D2
:10199000F08F0024A246A1460122EC4900E0044356
:1019A00015F8013F203B02FA03F00842F7D12878EE
:1019B0002A2810D06FF02F022878A0F130010929D1
:1019C00014D80AEB8A0102EB410144F0020400EB57
:1019D000010A6D1CF0E701CF5FEA000A03D544F469
:1019E0000054CAF1000A44F002046D1C28782E2825
:1019F00017D115F8010F44F004042A280ED06FF017
:101A00002F022878A0F1300109290AD809EB8901B1
:101A100002EB410100EB01096D1CF2E757F8049B52
:101A20006D1C28786C280FD006DC4C2817D068284D
:101A30000DD06A2814D104E0742810D07A280FD170
:101A40000DE044F400140AE044F4801401E044F48E
:101A500040146978814202D104F580146D1C6D1C1C
:101A60002A786E2A1FD00CDC632A31D004DC002ACD
:101A70008BD0582A11D1A3E0642A68D0692A0CD1EE
:101A800065E0732A2ED004DC6F2A73D0702A04D14B
:101A90009BE0752A6FD0782A6ED01046DDE90F12D0
:101AA0009047761C50E1C4F30250022806D0032868
:101AB00009D0042801CF09D0066045E101CFF11714
:101AC000C0E9006140E101CF06803DE106703BE1E5
:101AD00017F8040B8DF8000000208DF80100EB468C
:101AE000012003E057F804BB4FF0FF3061074FF0CF
:101AF000000102D40DE008F10101884649450FDAE2
:101B00008045F8DB1BF808100029F4D108E008F143
:101B1000010188468142FADB1BF808100029F6D142
:101B2000DDE90F23AAEB08008146214600F036F9D3
:101B3000304400EB080604E0DDE90F121BF8010B4E
:101B40009047B8F10108F7D221464846F7E00A214C
:101B5000C4F302534FF0000B0891022B04D001CFC5
:101B6000C117032B09D00AE0FF1D27F00707F7E88C
:101B7000020108E032E01FE020E000B2C117042BB0
:101B800001D140B2C117031E71F1000307DA4FF013
:101B9000000CD0EB0C006CEB01012D2302E02305BF
:101BA00004D52B238DF82430012303E0E30701D073
:101BB0002023F7E7984658E00A2110E010210EE0B4
:101BC00010204FF0000B08900CE010214FF0000B9C
:101BD00044F004044FF00809089103E008214FF095
:101BE000000B0891C4F30253022B04D001CF002153
:101BF000032B06D006E0FF1D27F00707F7E80201D8
:101C000003E080B2042B00D1C0B24FF000082307DC
:101C10002BD5702A07D0DDF820C08CF0100C5CEAC0
:101C20000B0C05D00EE040238DF82430012308E092
:101C300050EA010306D030238DF824308DF825209A
:101C400002239846DDF820C08CF0080C5CEA0B0CEF
:101C50000BD150EA010301D1630706D530238DF87B
:101C600024304FF00108A9F10109582A04D038A204
:101C70000B9208AA0A920BE03AA2F9E75B46089A8F
:101C8000FEF757FA0B9B9B5C0A9A521E0A9213703E
:101C900050EA0102F2D10A98ADEB000000F1200BEE
:101CA000600702D524F4803401E04FF00109D945E2
:101CB00002DDA9EB0B0000E0002000EB0B0141442A
:101CC0000890AAEB010AE00306D4DDE90F232146C0
:101CD000504600F063F806444FF0000908E009A9F7
:101CE00011F80900DDE90F12904709F10109761C8E
:101CF000C145F4DBE0030CD5DDE90F232146504656
:101D000000F04CF8064404E0DDE90F123020904763
:101D1000761C0899481E08900029F5DC08E00A980E
:101D20000A990078491C0A91DDE90F129047761C48
:101D3000BBF10001ABF1010BF1DC21465046DDE9BE
:101D40000F2300F019F806446D1C1BE6092801005A
:101D50003031323334353637383961626364656621
:101D600000000000303132333435363738394142E3
:101D700043444546000000002DE9F041044600259B
:101D80001E461746880404D405E039462020B04793
:101D90006D1C641EF9D52846BDE8F0812DE9F0419F
:101DA000044600251E469046C80301D5302700E0B2
:101DB0002027880404D505E041463846B0476D1C0D
:101DC000641EF9D52846BDE8F0810A68531C0B60F3
:101DD0001070704710B504460A464078012304F19C
:101DE000300100F045FD08B1032010BDB4F82E12FB
:101DF000A1F52A40553801D0022010BD94F86600A4
:101E0000B4F8671040EA01210848B0EB012F08D070
:101E100094F88210B4F8832041EA0221B0EB012F3C
:101E200001D1002010BD012010BD0000004641542A
:101E300000E0401C02780AB18A42FAD1D0B2704761
:101E40002DE9F04715460A4601680B78303B092B0F
:101E500008D84C783A2C05D1891C016013B10B20AD
:101E6000BDE8F0877648046814609CB1207820B102
:101E7000607800F016FDC1070ED04FF0000984F81D
:101E80000090484684F8019000F0BDFCC10708D0DE
:101E90000320E5E70C20E3E70DB1400704D4002060
:101EA000DEE71DB1400701D50A20D9E700263146FB
:101EB0002046FFF78FFF01280CD104F5F770017958
:101EC000F1B3017AD0F8090041EA002631462046F4
:101ED000FFF780FF032801D090BB01E00120BFE79E
:101EE000B4F83B00B0F5007F57D1B4F8460028B9EC
:101EF00094F85400D4F8551040EA0120E06194F8B9
:101F000040108446E170012901D0022945D194F89E
:101F10003D504843A5709DB16A1E15423DD1B4F8AD
:101F200041202281110738D1B4F8431029B994F81F
:101F30005010D4F8513041EA0321E38F03B100E09F
:101F40002BE01F1807EB1217B94226D3C91BB1FBB0
:101F5000F5F111B3012540F6F678414500D302258D
:101F60004FF6F678414500D303253744891C3344A6
:101F7000A7622362A161032D11D072B1184460627F
:101F8000022D17D001F0010001EB410100EB5100DF
:101F900000F2FF10BCEB502F0ED20D2060E7002A9C
:101FA000FBD194F85C00D4F85D2040EA0220606226
:101FB0008800EDE74800EBE74FF0FF30C4E90390FD
:101FC0004F46032D31D16771B4F8600001238219A7
:101FD0006261607804F1300100F04AFC28BBB4F87B
:101FE0002E02A0F52A4155391FD194F83000D4F8BB
:101FF000311040EA01201349884216D194F81402A6
:10200000D4F8151240EA01200F4988420DD194F806
:102010001C02D4F81D1240EA0120E06094F8180276
:10202000D4F8191240EA0120206105492570091FE2
:102030000888401C0880E080E76227712FE70000D5
:102040006402002052526141727241618269891EAC
:10205000921E8A4201D800207047826A807801FB74
:10206000002070472DE9F0410F00064606D001F030
:102070000FF8022809D20120BDE8F081F56815B1FA
:10208000B069A84205D8012503E0B1698142F3D8BF
:102090003D462C46B069641CA04202D80224022DA1
:1020A0000AD32146304600F0F3FF38B1411CE3D09B
:1020B0000128E1D0AC42EDD10020DDE76FF07042A5
:1020C0002146304601F048FA30B957B12246394628
:1020D000304601F041FA20B101280BD001242046FE
:1020E000CAE7F4603069411CF9D0401E306101201C
:1020F0007071F4E74FF0FF34F1E700002DE9F35F72
:1021000088460D6800E06D1C28782F28FBD05C28DD
:10211000F9D0009800242646D0F81C90A85D761CC3
:10212000202815D32F2813D05C2811D0FF2C2FD2B4
:10213000012100F005FF07002AD0802F04D20146BC
:102140005FA0FFF775FE18BB29F81470641CE5E763
:10215000AA19C8F80020202801D2042616E000267B
:1021600014E009EB440030F8020C20280DD02E2892
:102170000BD06CB1002129F8141000980B222021FB
:10218000806901F0ADF9002706E0641E002CE8D15B
:102190000620BDE8FC9F7F1C39F817002028FAD0E4
:1021A0002E28F8D01FB146F0030600E0641E2CB1C3
:1021B00009EB440030F8020C2E28F7D14FF0000A4A
:1021C000D0464FF0080B39F817507F1C05B3202D6F
:1021D00003D02E2D04D1A74202D046F00306F2E729
:1021E000DA4501D2A74219D1BBF10B0F0ED0A7429D
:1021F00001D046F003060BD84FEA886027464FF01F
:10220000080A4FF00B0B4FEA1068DCE746F00306B4
:10221000009880690178E5292ED02FE0802D0CD31D
:102220000021284600F08CFE050003D027482844F2
:1022300010F8805C46F0020625B1294624A0FFF77D
:10224000F7FD18B15F2546F003060EE0A5F1410049
:10225000192802D848F0020807E0A5F16100192802
:1022600003D8203D48F00108ADB20098816901F81B
:102270000A500AF1010AA6E705210170BBF1080F17
:1022800003D14FEA88604FEA1068C8F38100032841
:1022900003D06FEA0801890701D146F00206B107B1
:1022A00009D408F00301012901D146F010060128E4
:1022B00001D146F0080600988069C672002068E7E0
:1022C000222A3A3C3E3F7C7F000000005139000842
:1022D0002B2C3B3D5B5D00002DE9F05F04460021A7
:1022E00000F052FA00287CD1FF25AB462169206816
:1022F00001F0FDF807007DD16669307850B1F17AC0
:10230000E52801F03F0103D00A0705D50F2907D0C2
:10231000FF2568E004276DE00F2901D08DB34DE063
:10232000E16979B3420606D596F80DB020F0400079
:10233000E28805462284A84236D1727B5A4533D1C1
:1023400030788A4620F04000401EB14600EB800104
:1023500001EBC0064FF000080127284810F80810CC
:1023600001EB0900008877B100F006FE0746FF2E5A
:102370001AD23AF81600761C00F0FEFDB84213D1CE
:1023800005E016E02CE0A0F57F41FF390CD108F103
:102390000108B8F10D0FE0D399F80000400606D50A
:1023A0002FB13AF8160010B1FF25EDB21BE06D1EFB
:1023B000FBE7304601F000FA58451BD04FF6FF709E
:1023C0002084A069FF25C17AC9070CD10B21002206
:1023D000491E07D316F8012B10F8013BD21AF7D08B
:1023E00001E008E032B10021204600F009F80700C2
:1023F0003FF47CAF3846BDE8F09F00004439000848
:102400002DE9F0410446C0880E46401C07043F0CED
:102410002DD0206958B339075DD1401C2061E16897
:10242000206829B18278521E12EA171F04D052E0A8
:102430000089B8421BD94EE000F02AFE054601286B
:102440001AD9681C32D020688169A9423DD876B17A
:10245000E168FFF707FE05000CD0012D0CD0681CC9
:1024600024D00021206801F042F8F8B906E00420E9
:10247000BDE8F0810720FBE70220F9E720684FF470
:1024800000720021303001F02BF829462068FFF758
:10249000DDFD216800264FF00108C8620EE080F8DB
:1024A00004800021206801F022F808B10120DFE754
:1024B0002068C16A491C761CF6B2C1622068817826
:1024C000B142ECD8C16A891BC162E5602946206827
:1024D000FFF7BCFD2061E78007F00F013022206884
:1024E00002EB4111084460610020C1E72DE9F05F73
:1024F000FF2504462E4604274FF6FF7A4FF0000BC7
:1025000062E0206800F0F3FF070061D16269107893
:1025100060B1D17AE52801F03F0105D02E2803D023
:102520000B0705D50F2907D0FF253EE004274FE014
:102530000F2901D0B5BB3FE0410605D5567B20F001
:102540004000E18805462184A8422CD1507BB0424E
:1025500029D11078DFF8849000F03F00401E00EB96
:10256000800101EBC0010020E7690123D44619F87E
:1025700000809044B8F8008033B1FF2913D227F8C7
:1025800011804346491C01E0E0450CD1401C0D2858
:10259000EDD31078400603D5FF2904D227F811B0F7
:1025A0006D1E01E00DE0FF25EDB200212046FFF792
:1025B00027FF070008D00BE0104601F0FDF8B042FD
:1025C00008D0A4F820A005E02169002999D10FB115
:1025D000C4F810B03846BDE8F09F00004439000848
:1025E0002DE9FF5F04460C22D4E906763946684699
:1025F00000F06EFF9DF80B00C00719D00020F872A4
:102600000125E0612B4632466946384600F00CFD54
:102610002046FFF761FE18B96D1CADB2642DF1D3F1
:10262000642D0BD004280AD19DF80B00F872E661E6
:102630009DF80B00800711D5002005E0072004B0AD
:10264000BDE8F09F401C80B236F810100029F9D187
:102650000D211930B0FBF1F087B200E00127002115
:10266000204600F091F80028E9D10025A84621690C
:10267000206800F03CFF06000BD160690078E52877
:1026800008D038B1002501212046FFF7B9FE060029
:10269000EDD075E00DB9B4F806806D1CADB2BD4249
:1026A000F1D1012F53D94146204600F06DF80600C4
:1026B00066D1A06901F080F87F1EBDB24FF6FF7AA7
:1026C00003902169206800F012FF060058D161696B
:1026D000D4F81C90039848730F20C8720020087328
:1026E0008876EEB2C876701E00EB800202EBC00363
:1026F0000022DFF890B001F1010801E0504502D05E
:1027000039F813005B1C1BF802C001F80C001BF821
:1027100002704FEA102C07F808C000B95046521C4E
:102720000D2AEBD3504502D039F8130008B946F012
:1027300040060E7021680120087100212046FFF735
:102740005FFE06001CD16D1E2D042D0CB9D1216930
:10275000206800F0CCFE060012D16569202200211D
:10276000284600F0BDFE0B222846A16900F0B0FE0D
:10277000A069C07A00F01800287321680120087150
:1027800030465CE74439000870B50D46C180816869
:10279000044601291ED0206882698A421AD921B9CB
:1027A0000278032A04D1416A11B18078060117E04A
:1027B000E1600189A9420DD9406A17E0206800F064
:1027C00067FC0146401C07D0022903D320688069BA
:1027D000884203D8022070BD012070BDA81B85B2BD
:1027E000B542EBD2E1602068FFF730FC00EB15103A
:1027F000206105F00F013022206802EB41110844EE
:102800006061002070BD10B530B101280AD00228E7
:1028100008D0032804D105E0FEF75EF8002800D0B8
:10282000012010BD002010BD70B515460C4610B13A
:10283000012814D017E00D48FDF7F0FE0B48042CDA
:1028400011D2DFE804F00E021008D0E91110B1FB3C
:10285000F0F0286005E0B0F84800288001E0032986
:1028600001D8002070BD042070BD0000E01B0020D6
:1028700010B514461BB120B101280AD10FE0042085
:1028800010BD012B07D01A462046FEF741FA00285A
:10289000F6D0012010BD1046FEF77AFAF7E70020C7
:1028A00010BD002804D0012803D0022801D0012047
:1028B00070470020704710B514461BB120B10128A5
:1028C0000AD10FE0042010BD012B07D01A46204684
:1028D000FEF7E8FA0028F6D0012010BD1046FEF7FA
:1028E00061FBF7E7002010BD10B5044600F014FAB4
:1028F000002801D10021216010BD2DE9F74F1546B8
:102900008A46002229466846FFF79AFA5FEA0008DD
:1029100054D1286887690169BA1E914202D8CAF861
:1029200000104BE090F800900024B9F1010F01D0A5
:10293000066A17E002263146286800F0A9FB411C10
:1029400003D0012803D028B105E0012000E00220D7
:10295000804629E0641C2868761C80698642EAD398
:1029600022E059B93146761C286800F0C0FD5FEAC4
:10297000000819D128684FF400713030B9F1020F06
:1029800007D00278D0F8013042EA0322120106D0C3
:1029900006E0028802B9641C801C891E02E0641CE7
:1029A000001D091F7F1EDCD12868B9F1030F0461E7
:1029B00002D1296801204871CAF800404046BDE8AC
:1029C000FE8F000008B10B207047054B00221868ED
:1029D00000B1027001B10A70002019607047000058
:1029E000640200202DE9F7478DB04FF0000907463B
:1029F00002F01F06C0F8009026F0010269460EA8FA
:102A0000FFF71EFA050009A806904548079004D173
:102A100068460E9900F0C2FA0546059C0DB904B946
:102A2000062516F01C0F4ED055B1042D03D1684673
:102A3000FFF7D6FD0546059C46F0080645B16AE05D
:102A4000E07A10F0110F48D1700701D5082562E037
:102A5000300748D500F078FBA073010AE173010C40
:102A60002174000E607484F80B9084F81C9084F834
:102A70001D9084F81E9084F81F90A28A618B84F8C0
:102A80001A9084F81B9062F31F4184F814905FEA57
:102A9000010884F8159000994FF001000871414633
:102AA0001FD00098D0F82CA000F0D2FD050032D144
:102AB0000099A8F10100C8605146009800F017FD88
:102AC000051E0CD027E035BBE07AC10601D50425F0
:102AD00021E0B10703D5C00701D007251BE030076F
:102AE00001D546F020060098C06AC7E90704BE7108
:102AF000A18A608B61F31F403861207FD4F81D10DC
:102B000040EA0120C7E90290C7F8189000983860A1
:102B10000098C088B88010B02846BDE8F087000053
:102B2000E019002013B584B004460146002205A830
:102B3000FFF786F900281CD1C4F818D00E48E061D0
:102B40002046059900F02AFA80B9606938B1C17A47
:102B5000C9060DD5818A408B61F31F40A0602068B3
:102B60000021C088A0802046FFF70EFE042800D177
:102B7000052006B010BD0000E01900202DE9F05F2F
:102B8000894600211960044681889A4616460068E5
:102B900000F0C8FE002803D1A079010602D502206A
:102BA000BDE8F09FC00708D0D4E90210401A04F134
:102BB000240B864200D906467EE00720F0E7A06895
:102BC000C10561D122689178491E01EA502111F0B6
:102BD000FF0709D1F8B11046616900F059FA0228DF
:102BE0001BD3411C48D0606161692068FFF72EFA51
:102BF00098B100EB0708750A25D020687A1981780A
:102C00008A4200D9CD1BEBB2407842464946FFF7D5
:102C10002FFE88BB06E02069E1E7A07940F0800044
:102C2000A071BCE7A07940060BD5A169A1EB080013
:102C3000A84206D209EB40204FF40072594600F03A
:102C400047FC6D022EE0A26942451BD0A0794006E8
:102C50000AD52068012359464078FFF72CFE58B961
:102C6000A07920F04000A0712068012342464078FE
:102C70005946FFF7FDFD28B1A07940F08000A07112
:102C800001208DE7C4F818802089C0F30800C0F542
:102C90000075B54200D9354601192A464846243107
:102CA00000F016FCA068A9442844A060DAF80000EF
:102CB0004119761BCAF80010002E80D100206FE762
:102CC000FEB50D4604468188006800F02BFE002802
:102CD00018D1C5B1C4F818D00E48E0612046FFF7FE
:102CE00005FC0026042813D000280BD129462046D5
:102CF00000F02CFA00212046FFF782FB042801D1C6
:102D000000202661FEBD00212046FFF73DFDFEBDEF
:102D10002661EBE7E019002070B504468188006861
:102D200000F000FE00280ED1A1798A060BD54806D6
:102D30000ED52068012304F124014078A269FFF731
:102D4000BAFD08B1012070BDA07920F04000A0714B
:102D5000E169206800F0CBFB0028F4D1256AE87A0D
:102D600040F02000E872207B2877A089000A68776D
:102D7000E068000CA877E068000EE877207CA87671
:102D8000208A000AE8762069000C28752069000E68
:102D9000687500F0D9F9A875010AE975010C297662
:102DA000000E6876A07920F02000A0712168012033
:102DB00008712068BDE8704000F058BD2DE9F05F53
:102DC000894600211960044681889A4616460068A3
:102DD00000F0A8FD002803D1A079010602D5022049
:102DE000BDE8F09F800701D40720F9E7E06804F10F
:102DF000240B8219824274D393E0A068C10574D178
:102E000022689178491E01EA502111F0FF050BD18B
:102E1000B0B110466169FFF725F9002861D001289B
:102E200032D0411C57D06061A079400615D520688A
:102E3000012359464078A269FFF73DFDD8BB08E061
:102E400020690028EBD100211046FFF70BF9206123
:102E5000E3E7A07920F04000A07161692068FFF7E6
:102E6000F5F888B100EB0508770A25D02068EA1943
:102E700081788A4200D94F1BFBB2407842464946CE
:102E8000FFF719FDB8B904E0A07940F08000A07107
:102E9000A5E7A169A1EB0800B8420AD209EB4021DD
:102EA0004FF40072584600F013FBA07920F0400068
:102EB000A0717D022BE00EE0A169414513D0D4E959
:102EC000020188420FD220680123424640785946C9
:102ED000FFF7CEFC38B1A07940F08000A07101204E
:102EE0007EE721E001E0C4F818802089C0F30800E3
:102EF000C0F50075B54200D9354620442A464946FA
:102F0000243000F0E5FAA07940F04000A071A068FC
:102F1000A9442844A060DAF800004119761BCAF8D9
:102F20000010002E7FF469AFD4E90201884200D975
:102F3000E060A07940F02000A071002050E7000080
:102F4000802804D30B4A51B1FF2801D900207047D3
:102F500002EB4000A0F58050B0F8000F704732F847
:102F60001130834203D0491C89B28029F7D38031C4
:102F7000C8B27047D23900080021064B00E0491C56
:102F800033F81120002A04D08242F8D1024830F8E8
:102F900011007047D23A0008B23C000873B50446ED
:102FA000019908782F2801D05C2801D1491C019192
:102FB0000025A56001980078202805D20021204630
:102FC000FFF7E2FB65617CBD01A92046FFF796F89B
:102FD0000028F8D12046FFF77FF9A169C97A28B106
:102FE0000428F0D14907EED405207CBD4907FCD464
:102FF0006069C17AC906F7D5818A408B61F31F40A9
:10300000A060E1E770B5074D0446C1B22846FEF75F
:103010006AFC80212846FEF703FC0028F9D02046F0
:1030200070BD0000003801407CB516461C460546C0
:103030000B2200F04DFA052C09D9600836F8021B66
:1030400000EBC430084484B230880028F5D1072151
:103050006B4604F00F003030392800D9C01D585499
:10306000491E2409F5D17E205854002200E0521C4C
:103070008A4202D2A85C2028F9D1082902D2585CE1
:10308000491C00E02020A854521C082AF5D37CBD1E
:103090002DE9F0410D460446022902D3A069A84259
:1030A00002D80120BDE8F0812078012804D0022850
:1030B00026D0032837D12FE0206A05EB550600EB18
:1030C0005621204600F013FA68BBC6F308002044DE
:1030D000761C90F83070206A00EB5621204600F0F4
:1030E00006FA00BBC6F308002044E90790F8300058
:1030F00047EA002001D00009D4E7C0F30B00D1E774
:10310000206A00EB1521204600F0F1F958B9E8B229
:1031100004EB4000008EC5E7206A00EBD511204685
:1031200000F0E5F910B14FF0FF30BBE740F2FF10BF
:1031300000EA8500204490F83010D0F8310041EAD0
:10314000002020F07040ADE7002070472DE9F041ED
:103150000D4601F109040169C1B3436900211E7BD9
:103160005A5C202A0FD0052A00D1E522370705D561
:10317000A2F14107192F01D82032D2B2491C04F81C
:10318000012B0829ECD3197A202913D02E2104F819
:10319000011B0822995C20290CD0F70605D5A1F166
:1031A0004107192F01D82031C9B2521C04F8011B64
:1031B0000B2AEFD3D97A2972197FD3F81D2041EA5F
:1031C00002212960198BA980D98AE9804FF0000873
:1031D00084F80080AF69002F1ED0E96900291BD058
:1031E00001690024B1B1018CA1F57F42FF3A11D0F1
:1031F000C6690BE00021FFF7A3FE18B1E969491E7B
:10320000A14201D8002405E03855641C36F8020BB1
:103210000028EFD107F80480BDE8F081FEF790FAAE
:10322000FEF7C0FAFDF7B2F9FDF782F8FDF7DBFF14
:103230000020FDF7BDFF0021012353A20846FEF741
:103240005FF85748FEF75CFB5648FEF759FB5448B9
:10325000FEF756FB54A0FEF753FBFDF7E3FD534981
:103260000020FFF7AFFB524C207018B1014651A06F
:10327000FEF746FB58A0FEF743FB0A225CA162481A
:10328000FFF7B0FB207020B1014660A0FEF738FBCD
:1032900011E0474B37220C3303F501715A48FFF711
:1032A0008DFD2070002815D001465EA0FEF728FB9A
:1032B0005548FFF719FB61A0FEF722FB01224CA144
:1032C0006448FFF78FFB207038B101464FA0FEF72E
:1032D00017FB13E060A0E168E8E7354B37220833BD
:1032E00062495C48FFF74AFC2070002844D0014640
:1032F0005FA0FEF705FB5748FFF7F6FA62A0FEF75E
:10330000FFFA2B48103000F0D5F929481030FEF7AD
:10331000E5F8664C4FF400574FF496754FF480482B
:103320004FF40049002239462046FDF761F928464E
:1033300000F04FFA012239462046FDF759F90022E4
:10334000464641462046FDF753F9284600F041FA2B
:10335000012231462046FDF74BF900224E464946F0
:103360002046FDF745F9284600F033FA01223146A0
:103370002046FDF73DF9D5E74DA0A168FEF7C0FA5C
:103380003A4951A0B5E70000202055534220455648
:103390004B20426F6172642056302E3100000000D5
:1033A000645A0108105A01080D0A00006803002041
:1033B000140000206D6F756E742066696C657379FA
:1033C0007374656D2030206661696C6564203A20F5
:1033D00025640A0D00000000777269746520666933
:1033E0006C6520746573742E2E2E2E2E2E0A0D0001
:1033F000303A2F6C6F6E6766696C656E616D6574CF
:103400006573742E74787400BC0700206F70656E4D
:103410002066696C65206572726F72203A2025649F
:103420000A0D00007772697465206461746120651B
:1034300072726F72203A2025640A0D007265616411
:103440002066696C6520746573742E2E2E2E2E2EC8
:103450000A0D000098050020777269746520646188
:103460007461206F6B212025640A0D00E0090020A3
:10347000726561642066696C65206572726F722086
:103480003A2025640A0D00000A0D626567696E2006
:103490007363616E2066696C657320706174683057
:1034A0002E2E2E2E2E2E0A0D0000000000100140A0
:1034B000726561642064617461206E756D203A20CC
:1034C00025640A0D0000000025730A0D00000000AD
:1034D00003E011F8013B00F8013B521EF9D270479E
:1034E000C9B201E000F8011B521EFBD270472DE962
:1034F000F041C56A0F460446BD422BD0217904F144
:103500003008D9B1607801232A464146FFF7D3F944
:10351000E0B900202071D4E907100844A8420DD971
:10352000E67809E0E0690123054460782A464146CF
:10353000FFF7C1F9761EF6B2012EF3D857B16078C5
:1035400001233A464146FFF793F910B10120BDE847
:10355000F081E7620020FAE72DE9F04716460D46B4
:103560000446022902D3A069A84202D80220BDE87D
:10357000F087207806F0FF084FF00109012807D0F6
:10358000022837D0032846D0022084F80490EEE7C2
:10359000206A05EB550700EB57212046FFF7A7FFF0
:1035A0000028F2D1C7F3080020443030E90703D0E7
:1035B000017868F31F1100E03146017084F804902F
:1035C000206A7F1C00EB57212046FFF790FF002860
:1035D000DBD1C7F3080121443031EA0702D0C6F33A
:1035E000071205E00A78C6F3032302F0F0021A433B
:1035F0000A70CAE7206A00EB15212046FFF777FF23
:103600000028C2D1E9B204EB4101320A81F83080CE
:1036100081F83120B9E7206A00EBD5112046FFF789
:1036200066FF0028B1D140F2FF1101EA8501214473
:103630004FF07043D1F8312003EA0222324301F8FF
:10364000302F130A4B70130C8B70120ECA709CE74C
:103650002DE9F0410F460546022918D3A869B84262
:1036600015D900264FF001081DE039462846FFF71E
:103670000FFD04001AD0012C09D0601C09D00022D3
:1036800039462846FFF768FF06000FD103E00226FF
:103690000CE001260AE02869411C03D0401C286187
:1036A00085F805802746A869B842DED83046BDE8CF
:1036B000F081000070B5064692B02D4806904FF498
:1036C00080700790314608A8FFF72CFA040006D056
:1036D000014628A0FEF714F912B0204670BD30460E
:1036E000FCF720FD0546694608A8FFF7E9FA040043
:1036F000F2D19DF809000028EED02E28F3D00698CC
:10370000007808B1069C01E00DF109049DF808005D
:10371000C0061BD5701922461CA1FEF701F93146DF
:103720001BA0FEF7EDF80123224602210020FDF741
:10373000E7FD0123324602210020FDF7E1FD30467E
:10374000FFF7B8FF0400C7D17055CCE722463146D9
:1037500014A0FEF7D5F80123224603210020FDF72F
:10376000CFFD0123324603210020FDF7C9FDBAE752
:10377000680200207363616E2066696C6573206562
:1037800072726F72203A2025640A0D002F25730093
:103790007363616E2066696C65202D2025730A0DA8
:1037A000000000007363616E2066696C65202D2047
:1037B00025732F25730A0D00014600200B224308B4
:1037C00003EBC01011F8013B521E1844C0B2F6D1F1
:1037D00070474FF47A714843AFF30080002142E014
:1037E00000BF00BF00BF00BF00BF00BF00BF00BFE1
:1037F00000BF00BF00BF00BF00BF00BF00BF00BFD1
:1038000000BF00BF00BF00BF00BF00BF00BF00BFC0
:1038100000BF00BF00BF00BF00BF00BF00BF00BFB0
:1038200000BF00BF00BF00BF00BF00BF00BF00BFA0
:1038300000BF00BF00BF00BF00BF00BF00BF00BF90
:1038400000BF00BF00BF00BF00BF00BF00BF00BF80
:1038500000BF00BF00BF00BF00BF00BF00BF00BF70
:1038600000BF00BF491C8142BAD370472DE9F04127
:1038700004460021FFF73BFE050050D120780328C5
:1038800046D16079F0B3002604F130004FF40072A5
:1038900031460746E662FFF723FE552084F82E02E4
:1038A000AA2084F82F02522084F8300084F83100D6
:1038B000612284F83220412084F83300722184F898
:1038C000141284F8151284F8160284F8172220695D
:1038D00084F81802010A84F81912010C84F81A12EB
:1038E000000E84F81B02E06884F81C02010A84F8C8
:1038F0001D12010C000E84F81E1284F81F0260785D
:10390000012300E004E039466269FEF7D4FF6671E6
:10391000002260781146FEF787FF00B10125284696
:10392000BDE8F08110B520B1027812B1C2888A4298
:1039300001D0092010BD4078FEF7B3FFC007F9D0D1
:10394000032010BD01030507090E10121416181CE0
:103950001E809A90418E418F804545454949498E48
:103960008F9092924F994F555559999A9B9C9D9E35
:103970009F41494F55A5A5A6A7A8A9AAABAC21AEC2
:10398000AFB0B1B2B3B4B5B6B7B8B9BABBBCBDBECF
:10399000BFC0C1C2C3C4C5C6C7C8C9CACBCCCDCEBF
:1039A000CFD0D1D2D3D4D5D6D7D8D9DADBDCDDDEAF
:1039B000DFE0E1E2E3E4E5E6E7E8E9EAEBECEDEE9F
:1039C000EFF0F1F2F3F4F5F6F7F8F9FAFBFCFDFE8F
:1039D000FF00C700FC00E900E200E400E000E500B1
:1039E000E700EA00EB00E800EF00EE00EC00C400A6
:1039F000C500C900E600C600F400F600F200FB00B6
:103A0000F900FF00D600DC00A200A300A500A7205B
:103A10009201E100ED00F300FA00F100D100AA00EC
:103A2000BA00BF001023AC00BD00BC00A100AB0079
:103A3000BB00912592259325022524256125622529
:103A4000562555256325512557255D255C255B2584
:103A50001025142534252C251C2500253C255E2504
:103A60005F255A25542569256625602550256C2536
:103A70006725682564256525592558255225532530
:103A80006B256A2518250C25882584258C259025ED
:103A90008025B103DF009303C003A303C303B50074
:103AA000C403A6039803A903B4031E22C603B503E7
:103AB00029226122B1006522642220232123F700FC
:103AC0004822B0001922B7001A227F20B200A02598
:103AD000A00061006200630064006500660067008A
:103AE000680069006A006B006C006D006E006F007A
:103AF000700071007200730074007500760077002A
:103B0000780079007A00A100A200A300A500AC0013
:103B1000AF00E000E100E200E300E400E500E600C1
:103B2000E700E800E900EA00EB00EC00ED00EE0041
:103B3000EF00F000F100F200F300F400F500F600F1
:103B4000F800F900FA00FB00FC00FD00FE00FF0099
:103B5000010103010501070109010B010D010F011D
:103B6000110113011501170119011B011D011F018D
:103B7000210123012501270129012B012D012F01FD
:103B800031013301350137013A013C013E01400169
:103B900042014401460148014B014D014F015101D1
:103BA00053015501570159015B015D015F0161013D
:103BB00063016501670169016B016D016F017101AD
:103BC0007301750177017A017C017E019201B103D5
:103BD000B203B303B403B503B603B703B803B90321
:103BE000BA03BB03BC03BD03BE03BF03C003C103D1
:103BF000C303C403C503C603C703C803C903CA0379
:103C000030043104320433043404350436043704F8
:103C1000380439043A043B043C043D043E043F04A8
:103C20004004410442044304440445044604470458
:103C3000480449044A044B044C044D044E044F0408
:103C400051045204530454045504560457045804B0
:103C500059045A045B045C045E045F047021712102
:103C600072217321742175217621772178217921A0
:103C70007A217B217C217D217E217F2141FF42FF12
:103C800043FF44FF45FF46FF47FF48FF49FF4AFF08
:103C90004BFF4CFF4DFF4EFF4FFF50FF51FF52FFB8
:103CA00053FF54FF55FF56FF57FF58FF59FF5AFF68
:103CB0000000410042004300440045004600470028
:103CC000480049004A004B004C004D004E004F0098
:103CD0005000510052005300540055005600570048
:103CE000580059005A002100E0FFE1FFE5FFE2FF24
:103CF000E3FFC000C100C200C300C400C500C6008D
:103D0000C700C800C900CA00CB00CC00CD00CE005F
:103D1000CF00D000D100D200D300D400D500D6000F
:103D2000D800D900DA00DB00DC00DD00DE0078011D
:103D3000000102010401060108010A010C010E0143
:103D4000100112011401160118011A011C011E01B3
:103D5000200122012401260128012A012C012E0123
:103D6000300132013401360139013B013D013F018F
:103D700041014301450147014A014C014E015001F7
:103D800052015401560158015A015C015E01600163
:103D900062016401660168016A016C016E017001D3
:103DA00072017401760179017B017D01910191031A
:103DB000920393039403950396039703980399033F
:103DC0009A039B039C039D039E039F03A003A103EF
:103DD000A303A403A503A603A703A803A903AA0397
:103DE0001004110412041304140415041604170417
:103DF000180419041A041B041C041D041E041F04C7
:103E00002004210422042304240425042604270476
:103E1000280429042A042B042C042D042E042F0426
:103E2000010402040304040405040604070408044E
:103E300009040A040B040C040E040F046021612120
:103E4000622163216421652166216721682169213E
:103E50006A216B216C216D216E216F2121FF22FFD0
:103E600023FF24FF25FF26FF27FF28FF29FF2AFF26
:103E70002BFF2CFF2DFF2EFF2FFF30FF31FF32FFD6
:103E800033FF34FF35FF36FF37FF38FF39FF3AFF86
:103E900000000000000000000000002F00000000F3
:103EA0000700070000147F147F1400242A7F2A12C1
:103EB00000626408132300364955225000000503B0
:103EC000000000001C224100000041221C000014E0
:103ED000083E08140008083E0808000000A0600022
:103EE00000080808080800006060000000201008B2
:103EF0000402003E5149453E0000427F400000421E
:103F000061514946002141454B31001814127F1080
:103F1000002745454539003C4A49493000017109AF
:103F2000050300364949493600064949291E000063
:103F3000363600000000563600000008142241000A
:103F4000001414141414000041221408000201513A
:103F5000090600324959513E007C1211127C007F43
:103F600049494936003E41414122007F4141221CDE
:103F7000007F49494941007F09090901003E414943
:103F8000497A007F0808087F0000417F4100002037
:103F900040413F01007F08142241007F40404040E3
:103FA000007F020C027F007F0408107F003E414129
:103FB000413E007F09090906003E4151215E007F14
:103FC000091929460046494949310001017F01018B
:103FD000003F4040403F001F2040201F003F40382E
:103FE000403F00631408146300070870080700616D
:103FF0005149454300007F41410000552A552A554B
:10400000000041417F0000040201020400404040E2
:104010004040000001020400002054545478007F06
:104020004844443800384444442000384444487FDD
:1040300000385454541800087E0901020018A4A442
:10404000A47C007F080404780000447D4000004008
:1040500080847D00007F102844000000417F4000E4
:10406000007C04180478007C080404780038444478
:10407000443800FC242424180018242418FC007C54
:104080000804040800485454542000043F444020CD
:10409000003C4040207C001C2040201C003C403064
:1040A000403C004428102844001CA0A0A07C0044F0
:1040B00064544C4414141414141400000000000040
:1040C00000000000000000000000000000F80000F8
:1040D0000000000000333000000000100C06100C3F
:1040E0000600000000000000000040C07840C078DA
:1040F0004000043F04043F040400007088FC0830C2
:104100000000001820FF211E0000F008F000E01859
:10411000000000211C031E211E0000F00888700012
:1041200000001E2123241927211010160E00000064
:1041300000000000000000000000000000E0180483
:104140000200000000071820400000020418E000F0
:1041500000000040201807000000404080F0804030
:1041600040000202010F01020200000000F0000006
:1041700000000101011F010101000000000000001A
:10418000000080B07000000000000000000000008F
:104190000000000101010101010100000000000018
:1041A00000000030300000000000000000008060CF
:1041B0001804006018060100000000E01008081054
:1041C000E000000F102020100F00001010F8000079
:1041D00000000020203F2020000000700808088810
:1041E00070000030282422213000003008888848E0
:1041F00030000018202020110E000000C02010F810
:10420000000000070424243F240000F808888808E0
:1042100008000019212020110E0000E010888818E5
:104220000000000F112020110E0000380808C838C7
:1042300008000000003F00000000007088080888A7
:104240007000001C222121221C0000E01008081030
:10425000E0000000312222110F00000000C0C00069
:10426000000000000030300000000000008000006E
:10427000000000008060000000000000804020106E
:104280000800000102040810200040404040404067
:1042900040000404040404040400000810204080CA
:1042A00000000020100804020100007048080808FF
:1042B000F0000000003036010000C030C828E810CF
:1042C000E0000718272423140B000000C038E0008A
:1042D0000000203C23020227382008F888888870D4
:1042E0000000203F202020110E00C03008080808E0
:1042F0003800071820202010080008F808080810C7
:10430000E000203F202020100F0008F88888E808EF
:104310001000203F20202320180008F88888E80893
:104320001000203F200003000000C03008080838BB
:10433000000007182020221E020008F808000008CC
:10434000F808203F210101213F20000808F8080853
:1043500000000020203F2020000000000808F8088E
:104360000800C08080807F00000008F888C02818FE
:104370000800203F20012638200008F8080000002F
:104380000000203F20202020300008F8F800F8F836
:104390000800203F003F003F200008F830C0000820
:1043A000F808203F200007183F00E0100808081018
:1043B000E0000F10202020100F0008F8080808085F
:1043C000F000203F210101010000E0100808081062
:1043D000E0000F18242438504F0008F88888888897
:1043E0007000203F2000030C30200070880808086F
:1043F00038000038202121221C00180808F808087D
:1044000018000000203F2000000008F80800000805
:10441000F808001F202020201F000878880000C80E
:104420003808000007380E010000F80800F80008FE
:10443000F800033C0700073C030008186880806808
:10444000180820302C03032C30200838C800C83846
:1044500008000000203F2000000010080808C838AD
:1044600008002038262120201800000000FE02024B
:1044700002000000007F40404000000C30C00000FF
:104480000000000000010638C00000020202FE0029
:104490000000004040407F000000000004020202D3
:1044A0000400000000000000000000000000000008
:1044B00000008080808080808080000202040000F4
:1044C00000000000000000000000000080808080EC
:1044D00000000019242222223F2008F800808000DA
:1044E0000000003F112020110E000000008080809D
:1044F0000000000E112020201100000000808088A4
:10450000F800000E112020103F20000080808080E5
:104510000000001F222222221300008080F08888E1
:1045200088180020203F202000000000808080802C
:104530008000006B94949493600008F80080808061
:104540000000203F210000203F20008098980000BC
:1045500000000020203F20200000000000809898EC
:10456000000000C08080807F000008F8000080808C
:104570008000203F24022D302000000808F80000B1
:1045800000000020203F202000008080808080806C
:104590008000203F20003F20003F808000808080FE
:1045A0000000203F210000203F200000808080800C
:1045B0000000001F202020201F008080008080003D
:1045C000000080FFA12020110E00000000808080EC
:1045D0008000000E112020A0FF808080800080805D
:1045E000800020203F21200001000000808080808A
:1045F00080000033242424241900008080E080807F
:1046000000000000001F20200000808000000080CB
:104610008000001F202020103F208080800000802C
:10462000808000010E30080601008080008000803C
:1046300080800F300C030C300F00008080008080E1
:1046400080000020312E0E3120008080800000800C
:10465000808080818E7018060100008080808080BC
:1046600080000021302C2221300000000000807CDE
:10467000020200000000003F404000000000FF0078
:10468000000000000000FF0000000002027C80002B
:1046900000000040403F000000000006010102024F
:1046A0000404000000000000000000000000000002
:1046B0000001FFFE000001FFFE000003018000007A
:1046C0000FFF800003FFFF80000E3F83FE000E1FE0
:1046D00083FE000C1F83FC000C1F83FC000C77037F
:1046E000FC000FE0003C000FC000000000000000D4
:1046F00000000000000000000000000000000000BA
:1047000000000000000000000000000000000000A9
:104710000000000000000000000000000000000099
:1047200000000000007E000000007E000000007716
:10473000FF00000077FF0000007600000000760018
:104740000000007600000000760000000076000007
:1047500000007600000000760000000076000000F7
:1047600000760000000076000000007600000000E7
:104770007600000000360000000037FE0000003F19
:10478000FF0000003FFE0000003E000000000000AF
:104790000000000000000000000000000007000012
:1047A000000007C000030705FC0007FF8770000436
:1047B0001F861800041BFFFE00041FFFFE00041FDD
:1047C000818000047E01800007F00180000003FF6B
:1047D000FE000003FFFE00000000000000000000DB
:1047E00000000000000000000000000000000000C9
:1047F00000000000000000000000000000000000B9
:1048000000000000000000000000000000000000A8
:104810000000000000000000000000000000000098
:104820000000000000000000000000000000000088
:104830000000000000000000000000000000000078
:104840000000000000000000000000000000000068
:104850000000000000000000000000000000000058
:104860000000000000000000000000000000000048
:104870000000000000000000000000000000000038
:104880000000000000000000000000000000000028
:104890000000000000000000000000000000000018
:1048A000000000000001FFFE000001FFFE0000000C
:1048B000018000000F81800003CF8180000FFFFF87
:1048C000FE000C7F83FE000C3B03FC000C3303FC5A
:1048D000000C3F03FC000C3700040007E000000060
:1048E00003E00000000000000000000000000000E5
:1048F00000000000000000000000000000000000B8
:1049000000000000000000000000000000000000A7
:104910000000000000000000007E000000007E009B
:1049200000000077FF00000077FF00000076000025
:104930000000760000000076000000007600000015
:104940000076000000007600000000760000000005
:10495000760000000076000000007600000000767F
:10496000000000007600000000360000000037FE66
:104970000000003FFF0000003FFE0000003E00007E
:104980000000000000000000000000000000000027
:1049900000070000000007C000030705FC0007FF38
:1049A000877000041F861800041BFFFE00041FFF11
:1049B000FE00041F818000047E01800007F001805A
:1049C000000003FFFE000003FFFE000000000000E7
:1049D0000000000000000000000B183000000F78FD
:1049E000F080000FFEFE82001FFE7E82001BFC7E18
:1049F00082031FF45E82031FF45EE3FF1BFC5FF380
:104A0000FF1BFC7FF3801FFCFFE3001FFCFB870004
:104A10000FFC103200000E37F3FC0FFCFFE3FC0F1D
:104A2000F0FFC3F80EC0FFC3FC0EC47EE3FC1FCC36
:104A30006663FC1FFE7FF3FC0FFE7FF27F0FC07FDB
:104A4000E7FF0FE0E603FF1EE046003E0CC000015A
:104A50008000000003C400000003FE00000003FE0D
:104A600000000003E40000000180000000000000DE
:104A70000000000000000000000000000000000036
:104A80000000000000000000000000000000000026
:104A900000000000000000000001FFFE000001FF18
:104AA000FE000003018000000FFF800003FFFF8075
:104AB000000E3F83FE000E1F83FE000C1F83FC00D0
:104AC0000C1F83FC000C7703FC000FE0003C000F80
:104AD000C000000000000000000000000000000016
:104AE00000000000000000000000000000000000C6
:104AF00000000000000000000000000000000000B6
:104B0000000000000000000000000000007E000027
:104B100000007E0000000077FF00000077FF00002B
:104B20000076000000007600000000760000000023
:104B3000760000000076000000007600000000769D
:104B40000000000076000000007600000000760003
:104B50000000007600000000760000000036000033
:104B6000000037FE0000003FFF0000003FFE000095
:104B7000003E0000000000000000000000000000F7
:104B80000000000000070000000007C00003070548
:104B9000FC0007FF877000041F861800041BFFFE3F
:104BA00000041FFFFE00041F818000047E018000BE
:104BB00007F00180000003FFFE000003FFFE00007D
:104BC000000000000000000000000000000B183092
:104BD00000000F78F080000FFEFE82001FFE7E8234
:104BE000001BFC7E82031FF45E82031FF45EE3FF62
:104BF0001BFC5FF3FF1BFC7FF3801FFCFFE3001F28
:104C0000FCFB87000FFC103200000E37F3FC0FFC9A
:104C1000FFE3FC0FF0FFC3F80EC0FFC3FC0EC47E21
:104C2000E3FC1FCC6663FC1FFE7FF3FC0FFE7FF2EC
:104C30007F0FC07FE7FF0FE0E603FF1EE046003E68
:104C40000CC000018000000003C400000003FE004F
:104C5000000003FE00000003E400000001800000EB
:104C60000000000000000000000000000000000044
:104C70000000000000000000000000000000000034
:104C80000000000000000000000000000001FFFE26
:104C9000000001FFFE000000018000000F81800085
:104CA00003CF8180000FFFFFFE000C7F83FE000C0E
:104CB0003B03FC000C3303FC000C3F03FC000C37EF
:104CC00000040007E000000003E000000000000016
:104CD00000000000000000000000000000000000D4
:104CE00000000000000000000000000000000000C4
:104CF00000000000000000000000000000000000B4
:104D0000007E000000007E0000000077FF00000031
:104D100077FF0000007600000000760000000076BB
:104D20000000000076000000007600000000760021
:104D30000000007600000000760000000076000011
:104D40000000760000000076000000007600000001
:104D500000360000000037FE0000003FFF000000AA
:104D60003FFE0000003E00000000000000000000C8
:104D7000000000000000000000070000000007C065
:104D800000030705FC0007FF877000041F8618005A
:104D9000041BFFFE00041FFFFE00041F81800004AF
:104DA0007E01800007F00180000003FFFE00000389
:104DB000FFFE0000000000000000000000000000F6
:104DC000000B183000000F78F080000FFEFE82000C
:104DD0001FFE7E82001BFC7E82031FF45E82031F87
:104DE000F45EE3FF1BFC5FF3FF1BFC7FF3801FFC03
:104DF000FFE3001FFCFB87000FFC103200000E37A2
:104E0000F3FC0FFCFFE3FC0FF0FFC3F80EC0FFC381
:104E1000FC0EC47EE3FC1FCC6663FC1FFE7FF3FC2C
:104E20000FFE7FF27F0FC07FE7FF0FE0E603FF1E5C
:104E3000E046003E0CC000018000000003C40000FA
:104E40000003FE00000003FE00000003E400000079
:104E500001800000000000000000000000000000D1
:104E60000000000000000000000000000000000042
:104E70000000000000000000000000000000000032
:104E80000001FFFE000001FFFE00000301800000A2
:104E90000FFF800003FFFF80000E3F83FE000E1F08
:104EA00083FE000C1F83FC000C1F83FC000C7703A7
:104EB000FC000FE0003C000FC000000000000000FC
:104EC00000000000000000000000000000000000E2
:104ED00000000000000000000000000000000000D2
:104EE00000000000000000000000000000000000C2
:104EF00000000000007E000000007E00000000773F
:104F0000FF00000077FF0000007600000000760040
:104F1000000000760000000076000000007600002F
:104F2000000076000000007600000000760000001F
:104F3000007600000000760000000076000000000F
:104F40007600000000360000000037FE0000003F41
:104F5000FF0000003FFE0000003E000000000000D7
:104F6000000000000000000000000000000700003A
:104F7000000007C000030705FC0007FF877000045E
:104F80001F861800041BFFFE00041FFFFE00041F05
:104F9000818000047E01800007F00180000003FF93
:104FA000FE000003FFFE0000000000000000000003
:104FB00000000000000B183000000F78F080000F98
:104FC000FEFE82001FFE7E82001BFC7E82031FF419
:104FD0005E82031FF45EE3FF1BFC5FF3FF1BFC7F9D
:104FE000F3801FFCFFE3001FFCFB87000FFC103267
:104FF00000000E37F3FC0FFCFFE3FC0FF0FFC3F8DB
:105000000EC0FFC3FC0EC47EE3FC1FCC6663FC1F16
:10501000FE7FF3FC0FFE7FF27F0FC07FE7FF0FE004
:10502000E603FF1EE046003E0CC0000180000000C9
:1050300003C400000003FE00000003FE00000003A4
:10504000E4000000018000000000000000000000FB
:105050000000000000000000000000000000000050
:105060000000000000000000000000000000000040
:10507000000000000001FFFE000001FFFE00000331
:10508000018000000FFF800003FFFF80000E3F83C0
:10509000FE000E1F83FE000C1F83FC000C1F83FC10
:1050A000000C7703FC000FE0003C000FC000000084
:1050B00000000000000000000000000000000000F0
:1050C00000000000000000000000000000000000E0
:1050D00000000000000000000000000000000000D0
:1050E0000000000000000000007E000000007E00C4
:1050F00000000077FF00000077FF0000007600004E
:10510000000076000000007600000000760000003D
:10511000007600000000760000000076000000002D
:1051200076000000007600000000760000000076A7
:10513000000000007600000000360000000037FE8E
:105140000000003FFF0000003FFE0000003E0000A6
:10515000000000000000000000000000000000004F
:1051600000070000000007C000030705FC0007FF60
:10517000877000041F861800041BFFFE00041FFF39
:10518000FE00041F818000047E01800007F0018082
:10519000000003FFFE000003FFFE0000000000000F
:1051A0000000000000000000000B183000000F7825
:1051B000F080000FFEFE82001FFE7E82001BFC7E40
:1051C00082031FF45E82031FF45EE3FF1BFC5FF3A8
:1051D000FF1BFC7FF3801FFCFFE3001FFCFB87002D
:1051E0000FFC103200000E37F3FC0FFCFFE3FC0F46
:1051F000F0FFC3F80EC0FFC3FC0EC47EE3FC1FCC5F
:105200006663FC1FFE7FF3FC0FFE7FF27F0FC07F03
:10521000E7FF0FE0E603FF1EE046003E0CC0000182
:105220008000000003C400000003FE00000003FE35
:1052300000000003E4000000018000000000000006
:10524000000000000000000000000000000000005E
:10525000000000000000000000000000000000004E
:1052600000000000000000000001FFFE000001FF40
:10527000FE000003018000000FFF800003FFFF809D
:10528000000E3F83FE000E1F83FE000C1F83FC00F8
:105290000C1F83FC000C7703FC000FE0003C000FA8
:1052A000C00000000000000000000000000000003E
:1052B00000000000000000000000000000000000EE
:1052C00000000000000000000000000000000000DE
:1052D000000000000000000000000000007E000050
:1052E00000007E0000000077FF00000077FF000054
:1052F000007600000000760000000076000000004C
:1053000076000000007600000000760000000076C5
:10531000000000007600000000760000000076002B
:10532000000000760000000076000000003600005B
:10533000000037FE0000003FFF0000003FFE0000BD
:10534000003E00000000000000000000000000001F
:105350000000000000070000000007C00003070570
:10536000FC0007FF877000041F861800041BFFFE67
:1053700000041FFFFE00041F818000047E018000E6
:1053800007F00180000003FFFE000003FFFE0000A5
:10539000000000000000000000000000000B1830BA
:1053A00000000F78F080000FFEFE82001FFE7E825C
:1053B000001BFC7E82031FF45E82031FF45EE3FF8A
:1053C0001BFC5FF3FF1BFC7FF3801FFCFFE3001F50
:1053D000FCFB87000FFC103200000E37F3FC0FFCC3
:1053E000FFE3FC0FF0FFC3F80EC0FFC3FC0EC47E4A
:1053F000E3FC1FCC6663FC1FFE7FF3FC0FFE7FF215
:105400007F0FC07FE7FF0FE0E603FF1EE046003E90
:105410000CC000018000000003C400000003FE0077
:10542000000003FE00000003E40000000180000013
:10543000000000000000000000000000000000006C
:10544000000000000000000000000000000000005C
:105450000000000000000000000000000001FFFE4E
:10546000000001FFFE000003018000000FFF80002C
:1054700003FFFF80000E3F83FE000E1F83FE000C23
:105480001F83FC000C1F83FC000C7703FC000FE063
:10549000003C000FC0000000000000000000000001
:1054A00000000000000000000000000000000000FC
:1054B00000000000000000000000000000000000EC
:1054C00000000000000000000000000000000000DC
:1054D000007E000000007E0000000077FF0000005A
:1054E00077FF0000007600000000760000000076E4
:1054F000000000007600000000760000000076004A
:105500000000007600000000760000000076000039
:105510000000760000000076000000007600000029
:1055200000360000000037FE0000003FFF000000D2
:105530003FFE0000003E00000000000000000000F0
:10554000000000000000000000070000000007C08D
:1055500000030705FC0007FF877000041F86180082
:10556000041BFFFE00041FFFFE00041F81800004D7
:105570007E01800007F00180000003FFFE000003B1
:10558000FFFE00000000000000000000000000001E
:10559000000B183000000F78F080000FFEFE820034
:1055A0001FFE7E82001BFC7E82031FF45E82031FAF
:1055B000F45EE3FF1BFC5FF3FF1BFC7FF3801FFC2B
:1055C000FFE3001FFCFB87000FFC103200000E37CA
:1055D000F3FC0FFCFFE3FC0FF0FFC3F80EC0FFC3AA
:1055E000FC0EC47EE3FC1FCC6663FC1FFE7FF3FC55
:1055F0000FFE7FF27F0FC07FE7FF0FE0E603FF1E85
:10560000E046003E0CC000018000000003C4000022
:105610000003FE00000003FE00000003E4000000A1
:1056200001800000000000000000000000000000F9
:10563000000000000000000000000000000000006A
:10564000000000000000000000000000000000005A
:105650000001FFFE000001FFFE00000301800000CA
:105660000FFF800003FFFF80000E3F83FE000E1F30
:1056700083FE000C1F83FC000C1F83FC000C7703CF
:10568000FC000FE0003C000FC00000000000000024
:10569000000000000000000000000000000000000A
:1056A00000000000000000000000000000000000FA
:1056B00000000000000000000000000000000000EA
:1056C00000000000007E000000007E000000007767
:1056D000FF00000077FF0000007600000000760069
:1056E0000000007600000000760000000076000058
:1056F0000000760000000076000000007600000048
:105700000076000000007600000000760000000037
:105710007600000000360000000037FE0000003F69
:10572000FF0000003FFE0000003E000000000000FF
:105730000000000000000000000000000007000062
:10574000000007C000030705FC0007FF8770000486
:105750001F861800041BFFFE00041FFFFE00041F2D
:10576000818000047E01800007F00180000003FFBB
:10577000FE000003FFFE000000000000000000002B
:1057800000000000000B183000000F78F080000FC0
:10579000FEFE82001FFE7E82001BFC7E82031FF441
:1057A0005E82031FF45EE3FF1BFC5FF3FF1BFC7FC5
:1057B000F3801FFCFFE3001FFCFB87000FFC10328F
:1057C00000000E37F3FC0FFCFFE3FC0FF0FFC3F803
:1057D0000EC0FFC3FC0EC47EE3FC1FCC6663FC1F3F
:1057E000FE7FF3FC0FFE7FF27F0FC07FE7FF0FE02D
:1057F000E603FF1EE046003E0CC0000180000000F2
:1058000003C400000003FE00000003FE00000003CC
:10581000E400000001800000000000000000000023
:105820000000000000000000000000000000000078
:105830000000000000000000000000000000000068
:10584000000000000001FFFE000001FFFE0000005C
:10585000018000000F81800003CF8180000FFFFFD7
:10586000FE000C7F83FE000C3B03FC000C3303FCAA
:10587000000C3F03FC00043700043067E00000BB6D
:10588000E3E00000DFE0000000DC30000000FF701B
:10589000000000FFE00000008DE0000000FFE000DD
:1058A0000000FF70000000307000000000200000C9
:1058B0000000600000000060007E000040007E00EC
:1058C00000000077FF00000077FF00000076000076
:1058D000640076000064007600000000760000009E
:1058E00000760000000076000000007600006000F6
:1058F0007600006000760000000076000000007670
:10590000000000007600000000360000000037FEB6
:105910000000003FFF0000003FFE0000003E0000CE
:105920000000000000000000000000000000000077
:1059300000070000000007C000030705FC0007FF88
:10594000877000041F861800041BFFFE00041FFF61
:10595000FE00041F818000047E01800007F00180AA
:10596000000003FFFE000003FFFE00000000000037
:105970000000000000000000000000000000000027
:105980000000000000000000000000000000000017
:105990000000000000000000000000000000000007
:1059A00000000000000000000000000000000000F7
:1059B00000000000000000000000000000000000E7
:1059C00000000000000000000000000000000000D7
:1059D00000000000000000000000000000000000C7
:1059E00000000000000000000000000000000000B7
:1059F00000000000000000000000000000000000A7
:105A00000000000000000000000000000000000096
:105A10000000000000000000000000000000000086
:105A20000000000000000000000000000000000076
:105A300000000000000000000001FFFE000001FF68
:105A4000FE000000018000000F81800003CF8180F4
:105A5000000FFFFFFE000C7F83FE000C3B03FC00E9
:105A60000C3303FC000C3F03FC00043700043067D8
:105A7000E00000BBE3E00000DFE0000000DC3000FD
:105A80000000FF70000000FFE00000008DE000005B
:105A900000FFE0000000FF70000000307000000018
:105AA000002000000000600000000060007E000098
:105AB00040007E0000000077FF00000077FF00003C
:105AC00000760000640076000064007600000000AC
:105AD00076000000007600000000760000000076EE
